{
  "contractName": "EventTickets",
  "abi": [
    {
      "inputs": [
        {
          "internalType": "string",
          "name": "_description",
          "type": "string"
        },
        {
          "internalType": "string",
          "name": "_URL",
          "type": "string"
        },
        {
          "internalType": "uint256",
          "name": "_totalTickets",
          "type": "uint256"
        }
      ],
      "payable": false,
      "stateMutability": "nonpayable",
      "type": "constructor"
    },
    {
      "anonymous": false,
      "inputs": [
        {
          "indexed": false,
          "internalType": "uint256",
          "name": "tickets",
          "type": "uint256"
        }
      ],
      "name": "LogBuyTickets",
      "type": "event"
    },
    {
      "anonymous": false,
      "inputs": [
        {
          "indexed": false,
          "internalType": "address",
          "name": "owner",
          "type": "address"
        },
        {
          "indexed": false,
          "internalType": "uint256",
          "name": "balanceTransferred",
          "type": "uint256"
        }
      ],
      "name": "LogEndSale",
      "type": "event"
    },
    {
      "anonymous": false,
      "inputs": [
        {
          "indexed": false,
          "internalType": "address",
          "name": "refundRequester",
          "type": "address"
        },
        {
          "indexed": false,
          "internalType": "uint256",
          "name": "numberOfTickets",
          "type": "uint256"
        }
      ],
      "name": "LogGetRefund",
      "type": "event"
    },
    {
      "constant": true,
      "inputs": [],
      "name": "owner",
      "outputs": [
        {
          "internalType": "address payable",
          "name": "",
          "type": "address"
        }
      ],
      "payable": false,
      "stateMutability": "view",
      "type": "function"
    },
    {
      "constant": true,
      "inputs": [],
      "name": "readEvent",
      "outputs": [
        {
          "internalType": "string",
          "name": "description",
          "type": "string"
        },
        {
          "internalType": "string",
          "name": "website",
          "type": "string"
        },
        {
          "internalType": "uint256",
          "name": "totalTickets",
          "type": "uint256"
        },
        {
          "internalType": "uint256",
          "name": "sales",
          "type": "uint256"
        },
        {
          "internalType": "bool",
          "name": "isOpen",
          "type": "bool"
        }
      ],
      "payable": false,
      "stateMutability": "view",
      "type": "function"
    },
    {
      "constant": true,
      "inputs": [
        {
          "internalType": "address",
          "name": "_buyer",
          "type": "address"
        }
      ],
      "name": "getBuyerTicketCount",
      "outputs": [
        {
          "internalType": "uint256",
          "name": "numberOfTickets",
          "type": "uint256"
        }
      ],
      "payable": false,
      "stateMutability": "view",
      "type": "function"
    },
    {
      "constant": false,
      "inputs": [
        {
          "internalType": "uint256",
          "name": "_numberOfTickets",
          "type": "uint256"
        }
      ],
      "name": "buyTickets",
      "outputs": [],
      "payable": true,
      "stateMutability": "payable",
      "type": "function"
    },
    {
      "constant": false,
      "inputs": [],
      "name": "getRefund",
      "outputs": [],
      "payable": false,
      "stateMutability": "nonpayable",
      "type": "function"
    },
    {
      "constant": false,
      "inputs": [],
      "name": "endSale",
      "outputs": [],
      "payable": false,
      "stateMutability": "nonpayable",
      "type": "function"
    }
  ],
  "bytecode": "0x608060405260646001553480156200001657600080fd5b5060405162000e7f38038062000e7f833981810160405260608110156200003c57600080fd5b81019080805160405193929190846401000000008211156200005d57600080fd5b838201915060208201858111156200007457600080fd5b82518660018202830111640100000000821117156200009257600080fd5b8083526020830192505050908051906020019080838360005b83811015620000c8578082015181840152602081019050620000ab565b50505050905090810190601f168015620000f65780820380516001836020036101000a031916815260200191505b50604052602001805160405193929190846401000000008211156200011a57600080fd5b838201915060208201858111156200013157600080fd5b82518660018202830111640100000000821117156200014f57600080fd5b8083526020830192505050908051906020019080838360005b838110156200018557808201518184015260208101905062000168565b50505050905090810190601f168015620001b35780820380516001836020036101000a031916815260200191505b5060405260200180519060200190929190505050336000806101000a81548173ffffffffffffffffffffffffffffffffffffffff021916908373ffffffffffffffffffffffffffffffffffffffff1602179055508260026000019080519060200190620002229291906200026f565b5081600260010190805190602001906200023e9291906200026f565b508060028001819055506001600260050160006101000a81548160ff0219169083151502179055505050506200031e565b828054600181600116156101000203166002900490600052602060002090601f016020900481019282601f10620002b257805160ff1916838001178555620002e3565b82800160010185558215620002e3579182015b82811115620002e2578251825591602001919060010190620002c5565b5b509050620002f29190620002f6565b5090565b6200031b91905b8082111562000317576000816000905550600101620002fd565b5090565b90565b610b51806200032e6000396000f3fe6080604052600436106100555760003560e01c806305aea97c1461005a5780632f3666371461016f578063380d831b1461019d5780638da5cb5b146101b4578063b2d5ae441461020b578063edfb916714610222575b600080fd5b34801561006657600080fd5b5061006f610287565b60405180806020018060200186815260200185815260200184151515158152602001838103835288818151815260200191508051906020019080838360005b838110156100c95780820151818401526020810190506100ae565b50505050905090810190601f1680156100f65780820380516001836020036101000a031916815260200191505b50838103825287818151815260200191508051906020019080838360005b8381101561012f578082015181840152602081019050610114565b50505050905090810190601f16801561015c5780820380516001836020036101000a031916815260200191505b5097505050505050505060405180910390f35b61019b6004803603602081101561018557600080fd5b8101908080359060200190929190505050610400565b005b3480156101a957600080fd5b506101b2610673565b005b3480156101c057600080fd5b506101c9610860565b604051808273ffffffffffffffffffffffffffffffffffffffff1673ffffffffffffffffffffffffffffffffffffffff16815260200191505060405180910390f35b34801561021757600080fd5b50610220610885565b005b34801561022e57600080fd5b506102716004803603602081101561024557600080fd5b81019080803573ffffffffffffffffffffffffffffffffffffffff169060200190929190505050610a79565b6040518082815260200191505060405180910390f35b6060806000806000600260000160026001016002800154600260030154600260050160009054906101000a900460ff16848054600181600116156101000203166002900480601f01602080910402602001604051908101604052809291908181526020018280546001816001161561010002031660029004801561034c5780601f106103215761010080835404028352916020019161034c565b820191906000526020600020905b81548152906001019060200180831161032f57829003601f168201915b50505050509450838054600181600116156101000203166002900480601f0160208091040260200160405190810160405280929190818152602001828054600181600116156101000203166002900480156103e85780601f106103bd576101008083540402835291602001916103e8565b820191906000526020600020905b8154815290600101906020018083116103cb57829003601f168201915b50505050509350945094509450945094509091929394565b600260050160009054906101000a900460ff16610485576040517f08c379a00000000000000000000000000000000000000000000000000000000081526004018080602001828103825260118152602001807f4576656e74206973206e6f74206f70656e00000000000000000000000000000081525060200191505060405180910390fd5b6001543410156104fd576040517f08c379a00000000000000000000000000000000000000000000000000000000081526004018080602001828103825260148152602001807f5061796d656e7420696e73756666696369656e7400000000000000000000000081525060200191505060405180910390fd5b8060028001541015610577576040517f08c379a000000000000000000000000000000000000000000000000000000000815260040180806020018281038252601b8152602001807f4e6f7420656e6f756768207469636b65747320696e2073746f636b000000000081525060200191505060405180910390fd5b80600260040160003373ffffffffffffffffffffffffffffffffffffffff1673ffffffffffffffffffffffffffffffffffffffff16815260200190815260200160002060008282540192505081905550806002800160008282540392505081905550806002600301600082825401925050819055503373ffffffffffffffffffffffffffffffffffffffff166108fc600154830234039081150290604051600060405180830381858888f19350505050158015610638573d6000803e3d6000fd5b507f690e3bf3915d821aadc1a7ac10bd3159db9ad717c59e399c9411b916d9c32cfb816040518082815260200191505060405180910390a150565b6000809054906101000a900473ffffffffffffffffffffffffffffffffffffffff1673ffffffffffffffffffffffffffffffffffffffff163373ffffffffffffffffffffffffffffffffffffffff1614610718576040517f08c379a0000000000000000000000000000000000000000000000000000000008152600401808060200182810382526035815260200180610ac66035913960400191505060405180910390fd5b6000600260050160006101000a81548160ff02191690831515021790555060003073ffffffffffffffffffffffffffffffffffffffff163190506000809054906101000a900473ffffffffffffffffffffffffffffffffffffffff1673ffffffffffffffffffffffffffffffffffffffff166108fc3073ffffffffffffffffffffffffffffffffffffffff16319081150290604051600060405180830381858888f193505050501580156107d0573d6000803e3d6000fd5b507f21e7b2f8578199ba3904a63b7cd799784c8cadde57dde563a7de95ef792e256c6000809054906101000a900473ffffffffffffffffffffffffffffffffffffffff1682604051808373ffffffffffffffffffffffffffffffffffffffff1673ffffffffffffffffffffffffffffffffffffffff1681526020018281526020019250505060405180910390a150565b6000809054906101000a900473ffffffffffffffffffffffffffffffffffffffff1681565b6000600260040160003373ffffffffffffffffffffffffffffffffffffffff1673ffffffffffffffffffffffffffffffffffffffff168152602001908152602001600020541415610921576040517f08c379a0000000000000000000000000000000000000000000000000000000008152600401808060200182810382526022815260200180610afb6022913960400191505060405180910390fd5b6000600260040160003373ffffffffffffffffffffffffffffffffffffffff1673ffffffffffffffffffffffffffffffffffffffff1681526020019081526020016000205490506000600260040160003373ffffffffffffffffffffffffffffffffffffffff1673ffffffffffffffffffffffffffffffffffffffff168152602001908152602001600020819055508060028001600082825401925050819055503373ffffffffffffffffffffffffffffffffffffffff166108fc6001549081150290604051600060405180830381858888f19350505050158015610a0a573d6000803e3d6000fd5b507f492e1d962a477f77890c7cfdb563d7ddc58fee6505741794fa5700ada3c160413382604051808373ffffffffffffffffffffffffffffffffffffffff1673ffffffffffffffffffffffffffffffffffffffff1681526020018281526020019250505060405180910390a150565b6000600260040160008373ffffffffffffffffffffffffffffffffffffffff1673ffffffffffffffffffffffffffffffffffffffff16815260200190815260200160002054905091905056fe4f6e6c7920746865206f776e6572206f662074686520636f6e74726163742063616e2063616c6c20746869732066756e6374696f6e596f752068617665206e6f742070757263686173656420616e79207469636b657473a265627a7a7231582019777249a367351045e1eb3ee326e11079bfee3c970e9dedece78ac3790ae67064736f6c634300050c0032",
  "source": "pragma solidity ^0.5.0;\r\n\r\n    /*\r\n        The EventTickets contract keeps track of the details and ticket sales of one event.\r\n     */\r\n\r\ncontract EventTickets {\r\n\r\n    /*\r\n        Create a public state variable called owner.\r\n        Use the appropriate keyword to create an associated getter function.\r\n        Use the appropriate keyword to allow ether transfers.\r\n     */\r\n    address payable public owner;\r\n    uint TICKET_PRICE = 100 wei;\r\n\r\n    /*\r\n        Create a struct called \"Event\".\r\n        The struct has 6 fields: description, website (URL), totalTickets, sales, buyers, and isOpen.\r\n        Choose the appropriate variable type for each field.\r\n        The \"buyers\" field should keep track of addresses and how many tickets each buyer purchases.\r\n    */\r\n    struct Event {\r\n        string description;\r\n        string website;\r\n        uint totalTickets;\r\n        uint sales;\r\n        mapping (address => uint) buyers;\r\n        bool isOpen;\r\n    }\r\n\r\n    Event myEvent;\r\n\r\n    /*\r\n        Define 3 logging events.\r\n        LogBuyTickets should provide information about the purchaser and the number of tickets purchased.\r\n        LogGetRefund should provide information about the refund requester and the number of tickets refunded.\r\n        LogEndSale should provide infromation about the contract owner and the balance transferred to them.\r\n    */\r\n        event LogBuyTickets(uint tickets);\r\n        event LogGetRefund(address refundRequester, uint numberOfTickets);\r\n        event LogEndSale(address owner, uint balanceTransferred);\r\n    /*\r\n        Create a modifier that throws an error if the msg.sender is not the owner.\r\n    */\r\n    modifier ownerOnly {\r\n        require (msg.sender == owner, \"Only the owner of the contract can call this function\");\r\n        _;\r\n    }\r\n    /*\r\n        Define a constructor.\r\n        The constructor takes 3 arguments, the description, the URL and the number of tickets for sale.\r\n        Set the owner to the creator of the contract.\r\n        Set the appropriate myEvent details.\r\n    */\r\n    constructor(string memory _description, string memory _URL, uint  _totalTickets) public {\r\n        owner = msg.sender;\r\n        myEvent.description = _description;\r\n        myEvent.website = _URL;\r\n        myEvent.totalTickets = _totalTickets;\r\n        myEvent.isOpen = true;\r\n    }\r\n    /*\r\n        Define a function called readEvent() that returns the event details.\r\n        This function does not modify state, add the appropriate keyword.\r\n        The returned details should be called description, website, uint totalTickets, uint sales, bool isOpen in that order.\r\n    */\r\n    function readEvent()\r\n        public view\r\n        returns(string memory description, string memory website, uint totalTickets, uint sales, bool isOpen)\r\n    {\r\n        return (myEvent.description, myEvent.website, myEvent.totalTickets, myEvent.sales, myEvent.isOpen);\r\n    }\r\n\r\n    /*\r\n        Define a function called getBuyerTicketCount().\r\n        This function takes 1 argument, an address and\r\n        returns the number of tickets that address has purchased.\r\n    */\r\n    function getBuyerTicketCount(address _buyer) public view returns (uint numberOfTickets) {\r\n        return myEvent.buyers[_buyer];\r\n    }\r\n\r\n    /*\r\n        Define a function called buyTickets().\r\n        This function allows someone to purchase tickets for the event.\r\n        This function takes one argument, the number of tickets to be purchased.\r\n        This function can accept Ether.\r\n        Be sure to check:\r\n            - That the event isOpen\r\n            - That the transaction value is sufficient for the number of tickets purchased\r\n            - That there are enough tickets in stock\r\n        Then:\r\n            - add the appropriate number of tickets to the purchasers count\r\n            - account for the purchase in the remaining number of available tickets\r\n            - refund any surplus value sent with the transaction\r\n            - emit the appropriate event\r\n    */\r\n    function buyTickets(uint _numberOfTickets) public payable {\r\n        require(myEvent.isOpen, \"Event is not open\");\r\n        require(msg.value >= TICKET_PRICE, \"Payment insufficient\");\r\n        require(myEvent.totalTickets >= _numberOfTickets, \"Not enough tickets in stock\");\r\n        myEvent.buyers[msg.sender] += _numberOfTickets;\r\n        myEvent.totalTickets -= _numberOfTickets;\r\n        myEvent.sales += _numberOfTickets;\r\n        msg.sender.transfer(msg.value - _numberOfTickets * TICKET_PRICE);\r\n        emit LogBuyTickets(_numberOfTickets);\r\n    }\r\n    /*\r\n        Define a function called getRefund().\r\n        This function allows someone to get a refund for tickets for the account they purchased from.\r\n        TODO:\r\n            - Check that the requester has purchased tickets.\r\n            - Make sure the refunded tickets go back into the pool of avialable tickets.\r\n            - Transfer the appropriate amount to the refund requester.\r\n            - Emit the appropriate event.\r\n    */\r\n    function getRefund() public   {\r\n        require(myEvent.buyers[msg.sender]!=0, \"You have not purchased any tickets\");\r\n        uint numberOfTickets = myEvent.buyers[msg.sender]; \r\n        myEvent.buyers[msg.sender] = 0;\r\n        myEvent.totalTickets += numberOfTickets;\r\n        msg.sender.transfer(TICKET_PRICE);\r\n        emit LogGetRefund(msg.sender, numberOfTickets);\r\n        }\r\n        /*\r\n        Define a function called endSale().\r\n        This function will close the ticket sales.\r\n        This function can only be called by the contract owner.\r\n        TODO:\r\n            - close the event\r\n            - transfer the contract balance to the owner\r\n            - emit the appropriate event\r\n    */\r\n    function endSale() public ownerOnly {\r\n        myEvent.isOpen=false; \r\n        uint balance=address(this).balance;\r\n        owner.transfer(address(this).balance);\r\n        emit LogEndSale(owner, balance);\r\n    }\r\n}\r\n",
  "sourcePath": "C:/Users/micha/OneDrive/IT course/Consensys/Bootcamp/7. Writing Smart Contracts/Exercises/event-ticket-exercise-michaelseemichaeldo/contracts/EventTickets.sol",
  "compiler": {
    "name": "solc",
    "version": "0.5.12+commit.7709ece9.Emscripten.clang"
  },
  "schemaVersion": "3.0.19",
  "updatedAt": "2020-01-11T15:05:47.480Z",
  "devdoc": {
    "methods": {}
  },
  "userdoc": {
    "methods": {}
  }
}